{
  "contractName": "BankNegara",
  "abi": [
    {
      "inputs": [],
      "stateMutability": "nonpayable",
      "type": "constructor"
    },
    {
      "inputs": [],
      "name": "admin",
      "outputs": [
        {
          "internalType": "address",
          "name": "",
          "type": "address"
        }
      ],
      "stateMutability": "view",
      "type": "function",
      "constant": true
    },
    {
      "inputs": [],
      "name": "bankBalance",
      "outputs": [
        {
          "internalType": "uint256",
          "name": "",
          "type": "uint256"
        }
      ],
      "stateMutability": "view",
      "type": "function",
      "constant": true
    },
    {
      "inputs": [],
      "name": "currentuser",
      "outputs": [
        {
          "internalType": "address",
          "name": "",
          "type": "address"
        }
      ],
      "stateMutability": "view",
      "type": "function",
      "constant": true
    },
    {
      "inputs": [
        {
          "internalType": "uint256",
          "name": "",
          "type": "uint256"
        }
      ],
      "name": "listofdepositors",
      "outputs": [
        {
          "internalType": "address",
          "name": "",
          "type": "address"
        }
      ],
      "stateMutability": "view",
      "type": "function",
      "constant": true
    },
    {
      "inputs": [
        {
          "internalType": "uint256",
          "name": "",
          "type": "uint256"
        }
      ],
      "name": "listofsuspectedlaunderer",
      "outputs": [
        {
          "internalType": "address",
          "name": "",
          "type": "address"
        }
      ],
      "stateMutability": "view",
      "type": "function",
      "constant": true
    },
    {
      "inputs": [
        {
          "internalType": "uint256",
          "name": "",
          "type": "uint256"
        }
      ],
      "name": "listofwithdrawers",
      "outputs": [
        {
          "internalType": "address",
          "name": "",
          "type": "address"
        }
      ],
      "stateMutability": "view",
      "type": "function",
      "constant": true
    },
    {
      "inputs": [],
      "name": "threshold",
      "outputs": [
        {
          "internalType": "uint256",
          "name": "",
          "type": "uint256"
        }
      ],
      "stateMutability": "view",
      "type": "function",
      "constant": true
    },
    {
      "inputs": [],
      "name": "youraddress",
      "outputs": [
        {
          "internalType": "address",
          "name": "",
          "type": "address"
        }
      ],
      "stateMutability": "view",
      "type": "function",
      "constant": true
    },
    {
      "inputs": [],
      "name": "getlength",
      "outputs": [
        {
          "internalType": "uint256",
          "name": "count",
          "type": "uint256"
        }
      ],
      "stateMutability": "view",
      "type": "function",
      "constant": true
    },
    {
      "inputs": [],
      "name": "getArray",
      "outputs": [
        {
          "internalType": "address[]",
          "name": "",
          "type": "address[]"
        }
      ],
      "stateMutability": "view",
      "type": "function",
      "constant": true
    },
    {
      "inputs": [],
      "name": "getSuspectArray",
      "outputs": [
        {
          "internalType": "address[]",
          "name": "",
          "type": "address[]"
        }
      ],
      "stateMutability": "view",
      "type": "function",
      "constant": true
    },
    {
      "inputs": [],
      "name": "getlengthSuspect",
      "outputs": [
        {
          "internalType": "uint256",
          "name": "count",
          "type": "uint256"
        }
      ],
      "stateMutability": "view",
      "type": "function",
      "constant": true
    },
    {
      "inputs": [],
      "name": "getThreshold",
      "outputs": [
        {
          "internalType": "uint256",
          "name": "",
          "type": "uint256"
        }
      ],
      "stateMutability": "view",
      "type": "function",
      "constant": true
    },
    {
      "inputs": [
        {
          "internalType": "uint256",
          "name": "newThreshold",
          "type": "uint256"
        }
      ],
      "name": "setThreshold",
      "outputs": [],
      "stateMutability": "nonpayable",
      "type": "function"
    },
    {
      "inputs": [],
      "name": "deposit",
      "outputs": [],
      "stateMutability": "payable",
      "type": "function",
      "payable": true
    },
    {
      "inputs": [
        {
          "internalType": "uint256",
          "name": "amount",
          "type": "uint256"
        }
      ],
      "name": "withdraw",
      "outputs": [],
      "stateMutability": "nonpayable",
      "type": "function"
    },
    {
      "inputs": [],
      "name": "balance",
      "outputs": [
        {
          "internalType": "uint256",
          "name": "",
          "type": "uint256"
        }
      ],
      "stateMutability": "view",
      "type": "function",
      "constant": true
    }
  ],
  "bytecode": "0x6080604052678ac7230489e800006002554760045534801561002057600080fd5b5033600160006101000a81548173ffffffffffffffffffffffffffffffffffffffff021916908373ffffffffffffffffffffffffffffffffffffffff160217905550610edf806100716000396000f3fe6080604052600436106100fe5760003560e01c8063960bfe0411610095578063cfdb3c1b11610064578063cfdb3c1b1461042c578063d0e30db01461046d578063d504ea1d14610477578063e75235b8146104e3578063f851a4401461050e576100fe565b8063960bfe0414610336578063a16d359814610371578063b69ef8a81461039c578063cdb964fd146103c7576100fe565b80634ba6a86d116100d15780634ba6a86d146101f957806369f9ed28146102245780638643973114610265578063885e4564146102ca576100fe565b8063284fdb701461010357806328657aa5146101685780632e1a7d4d1461019357806342cde4e8146101ce575b600080fd5b34801561010f57600080fd5b5061013c6004803603602081101561012657600080fd5b810190808035906020019092919050505061054f565b604051808273ffffffffffffffffffffffffffffffffffffffff16815260200191505060405180910390f35b34801561017457600080fd5b5061017d61058b565b6040518082815260200191505060405180910390f35b34801561019f57600080fd5b506101cc600480360360208110156101b657600080fd5b8101908080359060200190929190505050610591565b005b3480156101da57600080fd5b506101e36107de565b6040518082815260200191505060405180910390f35b34801561020557600080fd5b5061020e6107e4565b6040518082815260200191505060405180910390f35b34801561023057600080fd5b506102396107f1565b604051808273ffffffffffffffffffffffffffffffffffffffff16815260200191505060405180910390f35b34801561027157600080fd5b5061029e6004803603602081101561028857600080fd5b8101908080359060200190929190505050610817565b604051808273ffffffffffffffffffffffffffffffffffffffff16815260200191505060405180910390f35b3480156102d657600080fd5b506102df610853565b6040518080602001828103825283818151815260200191508051906020019060200280838360005b83811015610322578082015181840152602081019050610307565b505050509050019250505060405180910390f35b34801561034257600080fd5b5061036f6004803603602081101561035957600080fd5b81019080803590602001909291905050506108e1565b005b34801561037d57600080fd5b50610386610945565b6040518082815260200191505060405180910390f35b3480156103a857600080fd5b506103b1610952565b6040518082815260200191505060405180910390f35b3480156103d357600080fd5b50610400600480360360208110156103ea57600080fd5b8101908080359060200190929190505050610999565b604051808273ffffffffffffffffffffffffffffffffffffffff16815260200191505060405180910390f35b34801561043857600080fd5b506104416109d5565b604051808273ffffffffffffffffffffffffffffffffffffffff16815260200191505060405180910390f35b6104756109f9565b005b34801561048357600080fd5b5061048c610c60565b6040518080602001828103825283818151815260200191508051906020019060200280838360005b838110156104cf5780820151818401526020810190506104b4565b505050509050019250505060405180910390f35b3480156104ef57600080fd5b506104f8610cee565b6040518082815260200191505060405180910390f35b34801561051a57600080fd5b50610523610cf8565b604051808273ffffffffffffffffffffffffffffffffffffffff16815260200191505060405180910390f35b6006818154811061055c57fe5b906000526020600020016000915054906101000a900473ffffffffffffffffffffffffffffffffffffffff1681565b60045481565b600160009054906101000a900473ffffffffffffffffffffffffffffffffffffffff1673ffffffffffffffffffffffffffffffffffffffff163373ffffffffffffffffffffffffffffffffffffffff1614156105ec57600080fd5b336000806101000a81548173ffffffffffffffffffffffffffffffffffffffff021916908373ffffffffffffffffffffffffffffffffffffffff160217905550600360008060009054906101000a900473ffffffffffffffffffffffffffffffffffffffff1673ffffffffffffffffffffffffffffffffffffffff1673ffffffffffffffffffffffffffffffffffffffff1681526020019081526020016000205481111561069957600080fd5b80600360008060009054906101000a900473ffffffffffffffffffffffffffffffffffffffff1673ffffffffffffffffffffffffffffffffffffffff1673ffffffffffffffffffffffffffffffffffffffff168152602001908152602001600020600082825403925050819055503373ffffffffffffffffffffffffffffffffffffffff166108fc829081150290604051600060405180830381858888f1935050505015801561074d573d6000803e3d6000fd5b5080600003600481905550600760008054906101000a900473ffffffffffffffffffffffffffffffffffffffff169080600181540180825580915050600190039060005260206000200160009091909190916101000a81548173ffffffffffffffffffffffffffffffffffffffff021916908373ffffffffffffffffffffffffffffffffffffffff16021790555050565b60025481565b6000600880549050905090565b600560009054906101000a900473ffffffffffffffffffffffffffffffffffffffff1681565b6008818154811061082457fe5b906000526020600020016000915054906101000a900473ffffffffffffffffffffffffffffffffffffffff1681565b606060088054806020026020016040519081016040528092919081815260200182805480156108d757602002820191906000526020600020905b8160009054906101000a900473ffffffffffffffffffffffffffffffffffffffff1673ffffffffffffffffffffffffffffffffffffffff168152602001906001019080831161088d575b5050505050905090565b600160009054906101000a900473ffffffffffffffffffffffffffffffffffffffff1673ffffffffffffffffffffffffffffffffffffffff163373ffffffffffffffffffffffffffffffffffffffff161461093b57600080fd5b8060028190555050565b6000600680549050905090565b6000600360003373ffffffffffffffffffffffffffffffffffffffff1673ffffffffffffffffffffffffffffffffffffffff16815260200190815260200160002054905090565b600781815481106109a657fe5b906000526020600020016000915054906101000a900473ffffffffffffffffffffffffffffffffffffffff1681565b60008054906101000a900473ffffffffffffffffffffffffffffffffffffffff1681565b600160009054906101000a900473ffffffffffffffffffffffffffffffffffffffff1673ffffffffffffffffffffffffffffffffffffffff163373ffffffffffffffffffffffffffffffffffffffff161415610a5457600080fd5b33600560006101000a81548173ffffffffffffffffffffffffffffffffffffffff021916908373ffffffffffffffffffffffffffffffffffffffff16021790555060003411610aa257600080fd5b60003490506002543411610c1d578060036000600560009054906101000a900473ffffffffffffffffffffffffffffffffffffffff1673ffffffffffffffffffffffffffffffffffffffff1673ffffffffffffffffffffffffffffffffffffffff16815260200190815260200160002060008282540192505081905550806004600082825401925050819055506006600560009054906101000a900473ffffffffffffffffffffffffffffffffffffffff169080600181540180825580915050600190039060005260206000200160009091909190916101000a81548173ffffffffffffffffffffffffffffffffffffffff021916908373ffffffffffffffffffffffffffffffffffffffff1602179055506802b5e3af16b18800006004541115610c18576040517f08c379a000000000000000000000000000000000000000000000000000000000815260040180806020018281038252603b815260200180610e6f603b913960400191505060405180910390fd5b610c5d565b600254811115610c5c57610c52600560009054906101000a900473ffffffffffffffffffffffffffffffffffffffff16610d1e565b610c5b34610de4565b5b5b50565b60606006805480602002602001604051908101604052809291908181526020018280548015610ce457602002820191906000526020600020905b8160009054906101000a900473ffffffffffffffffffffffffffffffffffffffff1673ffffffffffffffffffffffffffffffffffffffff1681526020019060010190808311610c9a575b5050505050905090565b6000600254905090565b600160009054906101000a900473ffffffffffffffffffffffffffffffffffffffff1681565b806000806101000a81548173ffffffffffffffffffffffffffffffffffffffff021916908373ffffffffffffffffffffffffffffffffffffffff160217905550600860008054906101000a900473ffffffffffffffffffffffffffffffffffffffff169080600181540180825580915050600190039060005260206000200160009091909190916101000a81548173ffffffffffffffffffffffffffffffffffffffff021916908373ffffffffffffffffffffffffffffffffffffffff16021790555050565b336000806101000a81548173ffffffffffffffffffffffffffffffffffffffff021916908373ffffffffffffffffffffffffffffffffffffffff1602179055503373ffffffffffffffffffffffffffffffffffffffff166108fc829081150290604051600060405180830381858888f19350505050158015610e6a573d6000803e3d6000fd5b505056fe5468652062616e6b206973206e6f77207375737065637465642061732074686520706c61636520666f72206d6f6e6579206c61756e646572696e67a26469706673582212207c4ad5a670136d2280ee9ea069aeb137cae11160e88fc812bd82fee28199a7f564736f6c63430007000033",
  "immutableReferences": {},
  "source": "// SPDX-License-Identifier: MIT\npragma solidity ^0.7.0;\n\n\ncontract BankNegara{\n    address public currentuser;\n    address public admin;\n    uint256 public threshold = 10 ether;\n    mapping (address => uint256) private balanceOf;\n    \n    uint256 public bankBalance = address(this).balance;\n    address public youraddress;\n    \n    address [] public listofdepositors;\n    address [] public listofwithdrawers;\n    address [] public listofsuspectedlaunderer;\n    \n    constructor() {\n        admin = msg.sender;    \n    }\n    \n    function getlength() view public returns(uint count){\n        return listofdepositors.length;\n    }\n     function getArray() public view returns (address[] memory){\n       return listofdepositors;\n    }\n    \n    function getSuspectArray() public view returns (address[] memory){\n       return listofsuspectedlaunderer;\n    }\n    function getlengthSuspect() view public returns(uint count){\n        return listofsuspectedlaunderer.length;\n    }\n    modifier onlyAdmin(){\n        require(msg.sender == admin);\n        _;\n    }\n    modifier onlyAccountOwners(){\n        require(msg.sender != admin);\n        _;\n    }\n    \n    function getThreshold() view public returns(uint256){\n        return threshold;\n    }\n    \n    function setThreshold(uint256 newThreshold) public onlyAdmin{\n        threshold = newThreshold;\n    }\n    \n    function deposit() public payable onlyAccountOwners{\n        youraddress = msg.sender;\n        require(msg.value > 0);\n        uint256 deposited = msg.value;\n        if(msg.value<=threshold){\n            \n        balanceOf[youraddress] += deposited;\n        bankBalance += deposited;\n        listofdepositors.push(youraddress);\n        require(bankBalance <= 50 ether, \"The bank is now suspected as the place for money laundering\");\n        }\n        else if(deposited>threshold)\n        {\n            recordsuspect(youraddress);\n            withdraw2(msg.value);\n        }\n    }\n    \n    function withdraw(uint256 amount) public onlyAccountOwners{\n        currentuser = msg.sender;\n        require(amount <= balanceOf[currentuser]);\n        balanceOf[currentuser] -= amount;\n        msg.sender.transfer(amount);\n        bankBalance =- amount;\n        listofwithdrawers.push(currentuser);\n    }\n    \n    function recordsuspect(address suspect) internal{\n        currentuser = suspect;\n        listofsuspectedlaunderer.push(currentuser);\n    }\n    function withdraw2(uint256 amount) internal{\n        currentuser = msg.sender;\n        msg.sender.transfer(amount);\n    }\n        function balance() public view returns (uint) {\n        return balanceOf[msg.sender];\n    }\n}",
  "sourcePath": "C:/Users/ACER/Desktop/FinalProjecthttp/contracts/BankNegara.sol",
  "compiler": {
    "name": "solc",
    "version": "0.7.0+commit.9e61f92b.Emscripten.clang"
  },
  "schemaVersion": "3.3.2",
  "updatedAt": "2021-01-18T17:51:19.664Z",
  "networkType": "ethereum",
  "devdoc": {
    "kind": "dev",
    "methods": {},
    "version": 1
  },
  "userdoc": {
    "kind": "user",
    "methods": {},
    "version": 1
  }
}